{
  "_format": "hh-sol-artifact-1",
  "contractName": "DummyWorkFi",
  "sourceName": "contracts/DummyWorkFi.sol",
  "abi": [
    {
      "inputs": [
        {
          "internalType": "uint32",
          "name": "bountyId",
          "type": "uint32"
        }
      ],
      "name": "acceptPayment",
      "outputs": [],
      "stateMutability": "nonpayable",
      "type": "function"
    },
    {
      "inputs": [
        {
          "internalType": "uint32",
          "name": "bountyId",
          "type": "uint32"
        },
        {
          "internalType": "address",
          "name": "worker",
          "type": "address"
        }
      ],
      "name": "acceptWorker",
      "outputs": [],
      "stateMutability": "nonpayable",
      "type": "function"
    },
    {
      "inputs": [
        {
          "internalType": "uint32",
          "name": "bountyId",
          "type": "uint32"
        }
      ],
      "name": "closeBounty",
      "outputs": [],
      "stateMutability": "nonpayable",
      "type": "function"
    },
    {
      "inputs": [
        {
          "internalType": "uint128",
          "name": "stablePay",
          "type": "uint128"
        },
        {
          "internalType": "uint128",
          "name": "nativePay",
          "type": "uint128"
        },
        {
          "internalType": "uint96",
          "name": "exchangeRate",
          "type": "uint96"
        },
        {
          "internalType": "address",
          "name": "nativeToken",
          "type": "address"
        },
        {
          "internalType": "uint256",
          "name": "deadline",
          "type": "uint256"
        }
      ],
      "name": "createBounty",
      "outputs": [
        {
          "internalType": "uint32",
          "name": "",
          "type": "uint32"
        }
      ],
      "stateMutability": "nonpayable",
      "type": "function"
    },
    {
      "inputs": [
        {
          "internalType": "uint32",
          "name": "bountyId",
          "type": "uint32"
        }
      ],
      "name": "getBounty",
      "outputs": [
        {
          "components": [
            {
              "internalType": "uint128",
              "name": "stablePay",
              "type": "uint128"
            },
            {
              "internalType": "uint128",
              "name": "nativePay",
              "type": "uint128"
            },
            {
              "internalType": "uint96",
              "name": "exchangeRate",
              "type": "uint96"
            },
            {
              "internalType": "address",
              "name": "nativeToken",
              "type": "address"
            },
            {
              "internalType": "address",
              "name": "worker",
              "type": "address"
            },
            {
              "internalType": "address",
              "name": "recruiter",
              "type": "address"
            },
            {
              "internalType": "bool",
              "name": "isClosed",
              "type": "bool"
            },
            {
              "internalType": "uint256",
              "name": "deadline",
              "type": "uint256"
            }
          ],
          "internalType": "struct IWorkFi.BountyMetadata",
          "name": "",
          "type": "tuple"
        }
      ],
      "stateMutability": "view",
      "type": "function"
    },
    {
      "inputs": [
        {
          "internalType": "bool",
          "name": "isOpen",
          "type": "bool"
        }
      ],
      "name": "getInvestedBounties",
      "outputs": [
        {
          "internalType": "uint32[]",
          "name": "",
          "type": "uint32[]"
        }
      ],
      "stateMutability": "pure",
      "type": "function"
    },
    {
      "inputs": [
        {
          "internalType": "uint32",
          "name": "bountyId",
          "type": "uint32"
        }
      ],
      "name": "getInvestment",
      "outputs": [
        {
          "internalType": "uint128",
          "name": "",
          "type": "uint128"
        }
      ],
      "stateMutability": "pure",
      "type": "function"
    },
    {
      "inputs": [],
      "name": "getOpenBounties",
      "outputs": [
        {
          "internalType": "uint32[]",
          "name": "",
          "type": "uint32[]"
        }
      ],
      "stateMutability": "pure",
      "type": "function"
    },
    {
      "inputs": [
        {
          "internalType": "address",
          "name": "recruiter",
          "type": "address"
        }
      ],
      "name": "getOpenBounties",
      "outputs": [
        {
          "internalType": "uint32[]",
          "name": "",
          "type": "uint32[]"
        }
      ],
      "stateMutability": "pure",
      "type": "function"
    },
    {
      "inputs": [
        {
          "internalType": "uint32",
          "name": "bountyId",
          "type": "uint32"
        },
        {
          "internalType": "uint128",
          "name": "stableAmount",
          "type": "uint128"
        }
      ],
      "name": "invest",
      "outputs": [],
      "stateMutability": "nonpayable",
      "type": "function"
    }
  ],
  "bytecode": "0x608060405234801561001057600080fd5b50610e09806100206000396000f3fe608060405234801561001057600080fd5b506004361061009e5760003560e01c8063a466c8d811610066578063a466c8d814610159578063ae4acccc14610189578063d8b8b81c146101a5578063e9d84d34146101d5578063ec66b13f146101f15761009e565b806302f6a6f4146100a357806311753ba2146100bf5780633d69583b146100db57806349c0c1901461010b5780637668d0c214610129575b600080fd5b6100bd60048036038101906100b891906108ec565b610221565b005b6100d960048036038101906100d49190610915565b610224565b005b6100f560048036038101906100f091906108ec565b610228565b6040516101029190610b3f565b60405180910390f35b61011361032e565b6040516101209190610b1d565b60405180910390f35b610143600480360381019061013e919061084c565b610434565b6040516101509190610b1d565b60405180910390f35b610173600480360381019061016e91906108ec565b6105b9565b6040516101809190610b5b565b60405180910390f35b6101a3600480360381019061019e9190610951565b6105cc565b005b6101bf60048036038101906101ba9190610875565b6105d0565b6040516101cc9190610b76565b60405180910390f35b6101ef60048036038101906101ea91906108ec565b6105df565b005b61020b60048036038101906102069190610823565b6105e2565b6040516102189190610b1d565b60405180910390f35b50565b5050565b6102306106ea565b604051806101000160405280686c6b935b8bbd4000006fffffffffffffffffffffffffffffffff168152602001683635c9adc5dea000006fffffffffffffffffffffffffffffffff168152602001670de0b6b3a76400006bffffffffffffffffffffffff1681526020017396b82b65acf7072efeb00502f45757f254c2a0d473ffffffffffffffffffffffffffffffffffffffff168152602001600073ffffffffffffffffffffffffffffffffffffffff168152602001600173ffffffffffffffffffffffffffffffffffffffff16815260200160008463ffffffff161415158152602001624f1a00426103249190610bca565b8152509050919050565b60606000600467ffffffffffffffff811115610373577f4e487b7100000000000000000000000000000000000000000000000000000000600052604160045260246000fd5b6040519080825280602002602001820160405280156103a15781602001602082028036833780820191505090505b50905060005b60048160ff16101561042c576001816103c09190610c20565b60ff16828260ff16815181106103ff577f4e487b7100000000000000000000000000000000000000000000000000000000600052603260045260246000fd5b602002602001019063ffffffff16908163ffffffff1681525050808061042490610cf0565b9150506103a7565b508091505090565b6060816104b257600167ffffffffffffffff81111561047c577f4e487b7100000000000000000000000000000000000000000000000000000000600052604160045260246000fd5b6040519080825280602002602001820160405280156104aa5781602001602082028036833780820191505090505b5090506105b4565b6000600467ffffffffffffffff8111156104f5577f4e487b7100000000000000000000000000000000000000000000000000000000600052604160045260246000fd5b6040519080825280602002602001820160405280156105235781602001602082028036833780820191505090505b50905060005b60048160ff1610156105ae576001816105429190610c20565b60ff16828260ff1681518110610581577f4e487b7100000000000000000000000000000000000000000000000000000000600052603260045260246000fd5b602002602001019063ffffffff16908163ffffffff168152505080806105a690610cf0565b915050610529565b50809150505b919050565b6000683635c9adc5dea000009050919050565b5050565b60006005905095945050505050565b50565b60606000600467ffffffffffffffff811115610627577f4e487b7100000000000000000000000000000000000000000000000000000000600052604160045260246000fd5b6040519080825280602002602001820160405280156106555781602001602082028036833780820191505090505b50905060005b60048160ff1610156106e0576001816106749190610c20565b60ff16828260ff16815181106106b3577f4e487b7100000000000000000000000000000000000000000000000000000000600052603260045260246000fd5b602002602001019063ffffffff16908163ffffffff168152505080806106d890610cf0565b91505061065b565b5080915050919050565b60405180610100016040528060006fffffffffffffffffffffffffffffffff16815260200160006fffffffffffffffffffffffffffffffff16815260200160006bffffffffffffffffffffffff168152602001600073ffffffffffffffffffffffffffffffffffffffff168152602001600073ffffffffffffffffffffffffffffffffffffffff168152602001600073ffffffffffffffffffffffffffffffffffffffff168152602001600015158152602001600081525090565b6000813590506107b481610d49565b92915050565b6000813590506107c981610d60565b92915050565b6000813590506107de81610d77565b92915050565b6000813590506107f381610d8e565b92915050565b60008135905061080881610da5565b92915050565b60008135905061081d81610dbc565b92915050565b60006020828403121561083557600080fd5b6000610843848285016107a5565b91505092915050565b60006020828403121561085e57600080fd5b600061086c848285016107ba565b91505092915050565b600080600080600060a0868803121561088d57600080fd5b600061089b888289016107cf565b95505060206108ac888289016107cf565b94505060406108bd8882890161080e565b93505060606108ce888289016107a5565b92505060806108df888289016107e4565b9150509295509295909350565b6000602082840312156108fe57600080fd5b600061090c848285016107f9565b91505092915050565b6000806040838503121561092857600080fd5b6000610936858286016107f9565b9250506020610947858286016107a5565b9150509250929050565b6000806040838503121561096457600080fd5b6000610972858286016107f9565b9250506020610983858286016107cf565b9150509250929050565b60006109998383610af0565b60208301905092915050565b6109ae81610c57565b82525050565b60006109bf82610ba1565b6109c98185610bb9565b93506109d483610b91565b8060005b83811015610a055781516109ec888261098d565b97506109f783610bac565b9250506001810190506109d8565b5085935050505092915050565b610a1b81610c69565b82525050565b61010082016000820151610a386000850182610ac3565b506020820151610a4b6020850182610ac3565b506040820151610a5e6040850182610b0e565b506060820151610a7160608501826109a5565b506080820151610a8460808501826109a5565b5060a0820151610a9760a08501826109a5565b5060c0820151610aaa60c0850182610a12565b5060e0820151610abd60e0850182610ae1565b50505050565b610acc81610c75565b82525050565b610adb81610c75565b82525050565b610aea81610cb1565b82525050565b610af981610cbb565b82525050565b610b0881610cbb565b82525050565b610b1781610cd8565b82525050565b60006020820190508181036000830152610b3781846109b4565b905092915050565b600061010082019050610b556000830184610a21565b92915050565b6000602082019050610b706000830184610ad2565b92915050565b6000602082019050610b8b6000830184610aff565b92915050565b6000819050602082019050919050565b600081519050919050565b6000602082019050919050565b600082825260208201905092915050565b6000610bd582610cb1565b9150610be083610cb1565b9250827fffffffffffffffffffffffffffffffffffffffffffffffffffffffffffffffff03821115610c1557610c14610d1a565b5b828201905092915050565b6000610c2b82610ccb565b9150610c3683610ccb565b92508260ff03821115610c4c57610c4b610d1a565b5b828201905092915050565b6000610c6282610c91565b9050919050565b60008115159050919050565b60006fffffffffffffffffffffffffffffffff82169050919050565b600073ffffffffffffffffffffffffffffffffffffffff82169050919050565b6000819050919050565b600063ffffffff82169050919050565b600060ff82169050919050565b60006bffffffffffffffffffffffff82169050919050565b6000610cfb82610ccb565b915060ff821415610d0f57610d0e610d1a565b5b600182019050919050565b7f4e487b7100000000000000000000000000000000000000000000000000000000600052601160045260246000fd5b610d5281610c57565b8114610d5d57600080fd5b50565b610d6981610c69565b8114610d7457600080fd5b50565b610d8081610c75565b8114610d8b57600080fd5b50565b610d9781610cb1565b8114610da257600080fd5b50565b610dae81610cbb565b8114610db957600080fd5b50565b610dc581610cd8565b8114610dd057600080fd5b5056fea2646970667358221220691dba2927c32145257743bdcd77235336c4d8dbad36da00d86e112b9dacc48264736f6c63430008040033",
  "linkReferences": {},
  "deployedLinkReferences": {}
}